{"abi":[{"type":"constructor","inputs":[{"name":"_owner","type":"address","internalType":"address"}],"stateMutability":"nonpayable"},{"type":"function","name":"getRecord","inputs":[{"name":"reportHash","type":"bytes32","internalType":"bytes32"}],"outputs":[{"name":"submitter","type":"address","internalType":"address"},{"name":"timestamp","type":"uint256","internalType":"uint256"},{"name":"exists","type":"bool","internalType":"bool"}],"stateMutability":"view"},{"type":"function","name":"getTimestamp","inputs":[{"name":"reportHash","type":"bytes32","internalType":"bytes32"}],"outputs":[{"name":"","type":"uint256","internalType":"uint256"}],"stateMutability":"view"},{"type":"function","name":"isRegistered","inputs":[{"name":"reportHash","type":"bytes32","internalType":"bytes32"}],"outputs":[{"name":"","type":"bool","internalType":"bool"}],"stateMutability":"view"},{"type":"function","name":"owner","inputs":[],"outputs":[{"name":"","type":"address","internalType":"address"}],"stateMutability":"view"},{"type":"function","name":"registerReport","inputs":[{"name":"reportHash","type":"bytes32","internalType":"bytes32"}],"outputs":[],"stateMutability":"nonpayable"},{"type":"event","name":"ReportRegistered","inputs":[{"name":"reportHash","type":"bytes32","indexed":true,"internalType":"bytes32"},{"name":"submitter","type":"address","indexed":true,"internalType":"address"},{"name":"timestamp","type":"uint256","indexed":false,"internalType":"uint256"}],"anonymous":false},{"type":"error","name":"AlreadyRegistered","inputs":[{"name":"reportHash","type":"bytes32","internalType":"bytes32"}]},{"type":"error","name":"NotOwner","inputs":[]},{"type":"error","name":"ZeroHash","inputs":[]}],"bytecode":{"object":"0x60a0604052348015600e575f5ffd5b506040516103fb3803806103fb833981016040819052602b916051565b6001600160a01b03811615603e57806040565b335b6001600160a01b031660805250607c565b5f602082840312156060575f5ffd5b81516001600160a01b03811681146075575f5ffd5b9392505050565b60805161036061009b5f395f818161012901526101c101526103605ff3fe608060405234801561000f575f5ffd5b5060043610610055575f3560e01c8063213681cd1461005957806327258b22146100eb5780638da5cb5b14610124578063d45c443514610163578063dd1df92c146101a1575b5f5ffd5b6100bf610067366004610313565b5f9081526020818152604091829020825160608101845290546001600160a01b038116808352600160a01b820467ffffffffffffffff16938301849052600160e01b90910460ff161515919093018190529192909190565b604080516001600160a01b03909416845260208401929092521515908201526060015b60405180910390f35b6101146100f9366004610313565b5f90815260208190526040902054600160e01b900460ff1690565b60405190151581526020016100e2565b61014b7f000000000000000000000000000000000000000000000000000000000000000081565b6040516001600160a01b0390911681526020016100e2565b610193610171366004610313565b5f90815260208190526040902054600160a01b900467ffffffffffffffff1690565b6040519081526020016100e2565b6101b46101af366004610313565b6101b6565b005b336001600160a01b037f000000000000000000000000000000000000000000000000000000000000000016146101ff576040516330cd747160e01b815260040160405180910390fd5b8061021d5760405163f1ae58d560e01b815260040160405180910390fd5b5f81815260208190526040902054600160e01b900460ff161561025a57604051633be57b3960e11b81526004810182905260240160405180910390fd5b604080516060810182523380825267ffffffffffffffff42818116602080860191825260018688019081525f898152918290529087902095518654925191511515600160e01b0260ff60e01b1992909516600160a01b026001600160e01b03199093166001600160a01b039190911617919091171691909117909255915183917f3ff3aaa3fce5f7a47cba1edd754938a8d517b12eaf17ebe3f2fcbb2851d3f4c99161030891815260200190565b60405180910390a350565b5f60208284031215610323575f5ffd5b503591905056fea2646970667358221220e1f80aece2859c773ce4f3aaacdac1e02c1364ed469e4f79baaed712883b821564736f6c634300081e0033","linkReferences":{}},"methodIdentifiers":{"getRecord(bytes32)":"213681cd","getTimestamp(bytes32)":"d45c4435","isRegistered(bytes32)":"27258b22","owner()":"8da5cb5b","registerReport(bytes32)":"dd1df92c"},"id":0}